{
  "_format": "hh-sol-artifact-1",
  "contractName": "Ballot",
  "sourceName": "contracts/TokenizedBallot.sol",
  "abi": [
    {
      "inputs": [
        {
          "internalType": "bytes32[]",
          "name": "proposalNames",
          "type": "bytes32[]"
        },
        {
          "internalType": "address",
          "name": "_tokenContract",
          "type": "address"
        },
        {
          "internalType": "uint256",
          "name": "_targetBlockNumber",
          "type": "uint256"
        }
      ],
      "stateMutability": "nonpayable",
      "type": "constructor"
    },
    {
      "anonymous": false,
      "inputs": [],
      "name": "ForceResetEvent",
      "type": "event"
    },
    {
      "anonymous": false,
      "inputs": [
        {
          "indexed": true,
          "internalType": "bytes32",
          "name": "role",
          "type": "bytes32"
        },
        {
          "indexed": true,
          "internalType": "bytes32",
          "name": "previousAdminRole",
          "type": "bytes32"
        },
        {
          "indexed": true,
          "internalType": "bytes32",
          "name": "newAdminRole",
          "type": "bytes32"
        }
      ],
      "name": "RoleAdminChanged",
      "type": "event"
    },
    {
      "anonymous": false,
      "inputs": [
        {
          "indexed": true,
          "internalType": "bytes32",
          "name": "role",
          "type": "bytes32"
        },
        {
          "indexed": true,
          "internalType": "address",
          "name": "account",
          "type": "address"
        },
        {
          "indexed": true,
          "internalType": "address",
          "name": "sender",
          "type": "address"
        }
      ],
      "name": "RoleGranted",
      "type": "event"
    },
    {
      "anonymous": false,
      "inputs": [
        {
          "indexed": true,
          "internalType": "bytes32",
          "name": "role",
          "type": "bytes32"
        },
        {
          "indexed": true,
          "internalType": "address",
          "name": "account",
          "type": "address"
        },
        {
          "indexed": true,
          "internalType": "address",
          "name": "sender",
          "type": "address"
        }
      ],
      "name": "RoleRevoked",
      "type": "event"
    },
    {
      "anonymous": false,
      "inputs": [
        {
          "indexed": true,
          "internalType": "address",
          "name": "voter",
          "type": "address"
        },
        {
          "indexed": false,
          "internalType": "uint256",
          "name": "proposalIndex",
          "type": "uint256"
        },
        {
          "indexed": false,
          "internalType": "uint256",
          "name": "votingPower",
          "type": "uint256"
        }
      ],
      "name": "VoteEvent",
      "type": "event"
    },
    {
      "inputs": [],
      "name": "DEFAULT_ADMIN_ROLE",
      "outputs": [
        {
          "internalType": "bytes32",
          "name": "",
          "type": "bytes32"
        }
      ],
      "stateMutability": "view",
      "type": "function"
    },
    {
      "inputs": [
        {
          "internalType": "uint256",
          "name": "newBlockNumber",
          "type": "uint256"
        }
      ],
      "name": "forceReset",
      "outputs": [],
      "stateMutability": "nonpayable",
      "type": "function"
    },
    {
      "inputs": [],
      "name": "getProposalsLength",
      "outputs": [
        {
          "internalType": "uint256",
          "name": "",
          "type": "uint256"
        }
      ],
      "stateMutability": "view",
      "type": "function"
    },
    {
      "inputs": [
        {
          "internalType": "bytes32",
          "name": "role",
          "type": "bytes32"
        }
      ],
      "name": "getRoleAdmin",
      "outputs": [
        {
          "internalType": "bytes32",
          "name": "",
          "type": "bytes32"
        }
      ],
      "stateMutability": "view",
      "type": "function"
    },
    {
      "inputs": [
        {
          "internalType": "bytes32",
          "name": "role",
          "type": "bytes32"
        },
        {
          "internalType": "address",
          "name": "account",
          "type": "address"
        }
      ],
      "name": "grantRole",
      "outputs": [],
      "stateMutability": "nonpayable",
      "type": "function"
    },
    {
      "inputs": [
        {
          "internalType": "bytes32",
          "name": "role",
          "type": "bytes32"
        },
        {
          "internalType": "address",
          "name": "account",
          "type": "address"
        }
      ],
      "name": "hasRole",
      "outputs": [
        {
          "internalType": "bool",
          "name": "",
          "type": "bool"
        }
      ],
      "stateMutability": "view",
      "type": "function"
    },
    {
      "inputs": [
        {
          "internalType": "address",
          "name": "",
          "type": "address"
        }
      ],
      "name": "hasVoted",
      "outputs": [
        {
          "internalType": "bool",
          "name": "",
          "type": "bool"
        }
      ],
      "stateMutability": "view",
      "type": "function"
    },
    {
      "inputs": [
        {
          "internalType": "uint256",
          "name": "",
          "type": "uint256"
        }
      ],
      "name": "proposals",
      "outputs": [
        {
          "internalType": "bytes32",
          "name": "name",
          "type": "bytes32"
        },
        {
          "internalType": "uint256",
          "name": "voteCount",
          "type": "uint256"
        }
      ],
      "stateMutability": "view",
      "type": "function"
    },
    {
      "inputs": [
        {
          "internalType": "bytes32",
          "name": "role",
          "type": "bytes32"
        },
        {
          "internalType": "address",
          "name": "account",
          "type": "address"
        }
      ],
      "name": "renounceRole",
      "outputs": [],
      "stateMutability": "nonpayable",
      "type": "function"
    },
    {
      "inputs": [
        {
          "internalType": "uint256",
          "name": "newBlockNumber",
          "type": "uint256"
        }
      ],
      "name": "reset",
      "outputs": [],
      "stateMutability": "nonpayable",
      "type": "function"
    },
    {
      "inputs": [
        {
          "internalType": "bytes32",
          "name": "role",
          "type": "bytes32"
        },
        {
          "internalType": "address",
          "name": "account",
          "type": "address"
        }
      ],
      "name": "revokeRole",
      "outputs": [],
      "stateMutability": "nonpayable",
      "type": "function"
    },
    {
      "inputs": [
        {
          "internalType": "bytes4",
          "name": "interfaceId",
          "type": "bytes4"
        }
      ],
      "name": "supportsInterface",
      "outputs": [
        {
          "internalType": "bool",
          "name": "",
          "type": "bool"
        }
      ],
      "stateMutability": "view",
      "type": "function"
    },
    {
      "inputs": [],
      "name": "targetBlockNumber",
      "outputs": [
        {
          "internalType": "uint256",
          "name": "",
          "type": "uint256"
        }
      ],
      "stateMutability": "view",
      "type": "function"
    },
    {
      "inputs": [],
      "name": "tokenContract",
      "outputs": [
        {
          "internalType": "contract IMyToken",
          "name": "",
          "type": "address"
        }
      ],
      "stateMutability": "view",
      "type": "function"
    },
    {
      "inputs": [
        {
          "internalType": "uint256",
          "name": "proposal",
          "type": "uint256"
        },
        {
          "internalType": "uint256",
          "name": "amount",
          "type": "uint256"
        }
      ],
      "name": "vote",
      "outputs": [],
      "stateMutability": "nonpayable",
      "type": "function"
    },
    {
      "inputs": [
        {
          "internalType": "uint256",
          "name": "",
          "type": "uint256"
        }
      ],
      "name": "voters",
      "outputs": [
        {
          "internalType": "address",
          "name": "",
          "type": "address"
        }
      ],
      "stateMutability": "view",
      "type": "function"
    },
    {
      "inputs": [
        {
          "internalType": "uint256",
          "name": "",
          "type": "uint256"
        }
      ],
      "name": "votes",
      "outputs": [
        {
          "internalType": "address",
          "name": "voter",
          "type": "address"
        },
        {
          "internalType": "uint256",
          "name": "proposalIndex",
          "type": "uint256"
        },
        {
          "internalType": "uint256",
          "name": "votingPower",
          "type": "uint256"
        }
      ],
      "stateMutability": "view",
      "type": "function"
    },
    {
      "inputs": [
        {
          "internalType": "address",
          "name": "account",
          "type": "address"
        }
      ],
      "name": "votingPower",
      "outputs": [
        {
          "internalType": "uint256",
          "name": "",
          "type": "uint256"
        }
      ],
      "stateMutability": "view",
      "type": "function"
    },
    {
      "inputs": [
        {
          "internalType": "address",
          "name": "",
          "type": "address"
        }
      ],
      "name": "votingPowerSpent",
      "outputs": [
        {
          "internalType": "uint256",
          "name": "",
          "type": "uint256"
        }
      ],
      "stateMutability": "view",
      "type": "function"
    },
    {
      "inputs": [],
      "name": "winnerName",
      "outputs": [
        {
          "internalType": "bytes32",
          "name": "winnerName_",
          "type": "bytes32"
        }
      ],
      "stateMutability": "view",
      "type": "function"
    },
    {
      "inputs": [],
      "name": "winningProposal",
      "outputs": [
        {
          "internalType": "uint256",
          "name": "winningProposal_",
          "type": "uint256"
        }
      ],
      "stateMutability": "view",
      "type": "function"
    }
  ],
  "bytecode": "0x60806040523480156200001157600080fd5b5060405162002623380380620026238339818101604052810190620000379190620004fc565b6200004c6000801b336200013560201b60201c565b81600260006101000a81548173ffffffffffffffffffffffffffffffffffffffff021916908373ffffffffffffffffffffffffffffffffffffffff1602179055508060048190555060005b83518110156200012b5760036040518060400160405280868481518110620000c457620000c362000577565b5b60200260200101518152602001600081525090806001815401808255809150506001900390600052602060002090600202016000909190919091506000820151816000015560208201518160010155505080806200012290620005d5565b91505062000097565b5050505062000622565b6200014782826200022660201b60201c565b6200022257600160008084815260200190815260200160002060000160008373ffffffffffffffffffffffffffffffffffffffff1673ffffffffffffffffffffffffffffffffffffffff16815260200190815260200160002060006101000a81548160ff021916908315150217905550620001c76200029060201b60201c565b73ffffffffffffffffffffffffffffffffffffffff168173ffffffffffffffffffffffffffffffffffffffff16837f2f8788117e7eff1d82e926ec794901d17c78024a50270940304540a733656f0d60405160405180910390a45b5050565b600080600084815260200190815260200160002060000160008373ffffffffffffffffffffffffffffffffffffffff1673ffffffffffffffffffffffffffffffffffffffff16815260200190815260200160002060009054906101000a900460ff16905092915050565b600033905090565b6000604051905090565b600080fd5b600080fd5b600080fd5b6000601f19601f8301169050919050565b7f4e487b7100000000000000000000000000000000000000000000000000000000600052604160045260246000fd5b620002fc82620002b1565b810181811067ffffffffffffffff821117156200031e576200031d620002c2565b5b80604052505050565b60006200033362000298565b9050620003418282620002f1565b919050565b600067ffffffffffffffff821115620003645762000363620002c2565b5b602082029050602081019050919050565b600080fd5b6000819050919050565b6200038f816200037a565b81146200039b57600080fd5b50565b600081519050620003af8162000384565b92915050565b6000620003cc620003c68462000346565b62000327565b90508083825260208201905060208402830185811115620003f257620003f162000375565b5b835b818110156200041f57806200040a88826200039e565b845260208401935050602081019050620003f4565b5050509392505050565b600082601f830112620004415762000440620002ac565b5b815162000453848260208601620003b5565b91505092915050565b600073ffffffffffffffffffffffffffffffffffffffff82169050919050565b600062000489826200045c565b9050919050565b6200049b816200047c565b8114620004a757600080fd5b50565b600081519050620004bb8162000490565b92915050565b6000819050919050565b620004d681620004c1565b8114620004e257600080fd5b50565b600081519050620004f681620004cb565b92915050565b600080600060608486031215620005185762000517620002a2565b5b600084015167ffffffffffffffff811115620005395762000538620002a7565b5b620005478682870162000429565b93505060206200055a86828701620004aa565b92505060406200056d86828701620004e5565b9150509250925092565b7f4e487b7100000000000000000000000000000000000000000000000000000000600052603260045260246000fd5b7f4e487b7100000000000000000000000000000000000000000000000000000000600052601160045260246000fd5b6000620005e282620004c1565b91507fffffffffffffffffffffffffffffffffffffffffffffffffffffffffffffffff8203620006175762000616620005a6565b5b600182019050919050565b611ff180620006326000396000f3fe608060405234801561001057600080fd5b50600436106101375760003560e01c80635df81330116100b8578063b384abef1161007c578063b384abef14610377578063bc378a7314610393578063c07473f6146103b1578063d547741f146103e1578063da58c7d9146103fd578063e2ba53f01461042d57610137565b80635df81330146102a9578063609ff1bd146102db57806391d14854146102f9578063a217fddf14610329578063a72003511461034757610137565b80632f2ff15d116100ff5780632f2ff15d1461021b578063310bd74b1461023757806336568abe14610253578063379ff8251461026f57806355a373d61461028b57610137565b8063013cf08b1461013c57806301ffc9a71461016d57806309eef43e1461019d578063248a9ca3146101cd5780632a8cd29e146101fd575b600080fd5b610156600480360381019061015191906115ef565b61044b565b604051610164929190611644565b60405180910390f35b610187600480360381019061018291906116c5565b61047f565b604051610194919061170d565b60405180910390f35b6101b760048036038101906101b29190611786565b6104f9565b6040516101c4919061170d565b60405180910390f35b6101e760048036038101906101e291906117df565b610519565b6040516101f4919061180c565b60405180910390f35b610205610538565b6040516102129190611827565b60405180910390f35b61023560048036038101906102309190611842565b61053e565b005b610251600480360381019061024c91906115ef565b61055f565b005b61026d60048036038101906102689190611842565b610749565b005b610289600480360381019061028491906115ef565b6107cc565b005b6102936109b4565b6040516102a091906118e1565b60405180910390f35b6102c360048036038101906102be91906115ef565b6109da565b6040516102d29392919061190b565b60405180910390f35b6102e3610a34565b6040516102f09190611827565b60405180910390f35b610313600480360381019061030e9190611842565b610abc565b604051610320919061170d565b60405180910390f35b610331610b26565b60405161033e919061180c565b60405180910390f35b610361600480360381019061035c9190611786565b610b2d565b60405161036e9190611827565b60405180910390f35b610391600480360381019061038c9190611942565b610b45565b005b61039b610e3b565b6040516103a89190611827565b60405180910390f35b6103cb60048036038101906103c69190611786565b610e48565b6040516103d89190611827565b60405180910390f35b6103fb60048036038101906103f69190611842565b610f3b565b005b610417600480360381019061041291906115ef565b610f5c565b6040516104249190611982565b60405180910390f35b610435610f9b565b604051610442919061180c565b60405180910390f35b6003818154811061045b57600080fd5b90600052602060002090600202016000915090508060000154908060010154905082565b60007f7965db0b000000000000000000000000000000000000000000000000000000007bffffffffffffffffffffffffffffffffffffffffffffffffffffffff1916827bffffffffffffffffffffffffffffffffffffffffffffffffffffffff191614806104f257506104f182610fcf565b5b9050919050565b60056020528060005260406000206000915054906101000a900460ff1681565b6000806000838152602001908152602001600020600101549050919050565b60045481565b61054782610519565b61055081611039565b61055a838361104d565b505050565b6000801b61056c81611039565b60006001905060005b6006805490508110156106fc57600160006006838154811061059a5761059961199d565b5b9060005260206000200160009054906101000a900473ffffffffffffffffffffffffffffffffffffffff1673ffffffffffffffffffffffffffffffffffffffff1673ffffffffffffffffffffffffffffffffffffffff16815260200190815260200160002054600260009054906101000a900473ffffffffffffffffffffffffffffffffffffffff1673ffffffffffffffffffffffffffffffffffffffff16633a46b1a8600684815481106106525761065161199d565b5b9060005260206000200160009054906101000a900473ffffffffffffffffffffffffffffffffffffffff16876040518363ffffffff1660e01b815260040161069b9291906119cc565b602060405180830381865afa1580156106b8573d6000803e3d6000fd5b505050506040513d601f19601f820116820180604052508101906106dc9190611a0a565b10156106eb57600091506106fc565b806106f590611a66565b9050610575565b508061073d576040517f08c379a000000000000000000000000000000000000000000000000000000000815260040161073490611b57565b60405180910390fd5b82600481905550505050565b61075161112d565b73ffffffffffffffffffffffffffffffffffffffff168173ffffffffffffffffffffffffffffffffffffffff16146107be576040517f08c379a00000000000000000000000000000000000000000000000000000000081526004016107b590611be9565b60405180910390fd5b6107c88282611135565b5050565b6000801b6107d981611039565b60005b60068054905081101561091357600060016000600684815481106108035761080261199d565b5b9060005260206000200160009054906101000a900473ffffffffffffffffffffffffffffffffffffffff1673ffffffffffffffffffffffffffffffffffffffff1673ffffffffffffffffffffffffffffffffffffffff16815260200190815260200160002081905550600060056000600684815481106108865761088561199d565b5b9060005260206000200160009054906101000a900473ffffffffffffffffffffffffffffffffffffffff1673ffffffffffffffffffffffffffffffffffffffff1673ffffffffffffffffffffffffffffffffffffffff16815260200190815260200160002060006101000a81548160ff0219169083151502179055508061090c90611a66565b90506107dc565b5060005b6003805490508110156109605760006003828154811061093a5761093961199d565b5b9060005260206000209060020201600101819055508061095990611a66565b9050610917565b506006600061096f9190611504565b6007600061097d9190611525565b816004819055507fa1768fbbf2f141ea28e56c2bbda37957cb1f45930249f8b95b730ab4789b1c0c60405160405180910390a15050565b600260009054906101000a900473ffffffffffffffffffffffffffffffffffffffff1681565b600781815481106109ea57600080fd5b90600052602060002090600302016000915090508060000160009054906101000a900473ffffffffffffffffffffffffffffffffffffffff16908060010154908060020154905083565b6000806000905060005b600380549050811015610ab7578160038281548110610a6057610a5f61199d565b5b9060005260206000209060020201600101541115610aa45760038181548110610a8c57610a8b61199d565b5b90600052602060002090600202016001015491508092505b8080610aaf90611a66565b915050610a3e565b505090565b600080600084815260200190815260200160002060000160008373ffffffffffffffffffffffffffffffffffffffff1673ffffffffffffffffffffffffffffffffffffffff16815260200190815260200160002060009054906101000a900460ff16905092915050565b6000801b81565b60016020528060005260406000206000915090505481565b80610b4f33610e48565b1015610b90576040517f08c379a0000000000000000000000000000000000000000000000000000000008152600401610b8790611c55565b60405180910390fd5b80600160003373ffffffffffffffffffffffffffffffffffffffff1673ffffffffffffffffffffffffffffffffffffffff1681526020019081526020016000206000828254610bdf9190611c75565b92505081905550600560003373ffffffffffffffffffffffffffffffffffffffff1673ffffffffffffffffffffffffffffffffffffffff16815260200190815260200160002060009054906101000a900460ff16610cf3576001600560003373ffffffffffffffffffffffffffffffffffffffff1673ffffffffffffffffffffffffffffffffffffffff16815260200190815260200160002060006101000a81548160ff0219169083151502179055506006339080600181540180825580915050600190039060005260206000200160009091909190916101000a81548173ffffffffffffffffffffffffffffffffffffffff021916908373ffffffffffffffffffffffffffffffffffffffff1602179055505b8060038381548110610d0857610d0761199d565b5b90600052602060002090600202016001016000828254610d289190611c75565b92505081905550600760405180606001604052803373ffffffffffffffffffffffffffffffffffffffff16815260200184815260200183815250908060018154018082558091505060019003906000526020600020906003020160009091909190915060008201518160000160006101000a81548173ffffffffffffffffffffffffffffffffffffffff021916908373ffffffffffffffffffffffffffffffffffffffff160217905550602082015181600101556040820151816002015550503373ffffffffffffffffffffffffffffffffffffffff167ea6a07a12abd0e14095075702619f674b917829771316489ee2b35851533ba58383604051610e2f929190611ca9565b60405180910390a25050565b6000600380549050905090565b6000600160008373ffffffffffffffffffffffffffffffffffffffff1673ffffffffffffffffffffffffffffffffffffffff16815260200190815260200160002054600260009054906101000a900473ffffffffffffffffffffffffffffffffffffffff1673ffffffffffffffffffffffffffffffffffffffff16633a46b1a8846004546040518363ffffffff1660e01b8152600401610ee99291906119cc565b602060405180830381865afa158015610f06573d6000803e3d6000fd5b505050506040513d601f19601f82011682018060405250810190610f2a9190611a0a565b610f349190611cd2565b9050919050565b610f4482610519565b610f4d81611039565b610f578383611135565b505050565b60068181548110610f6c57600080fd5b906000526020600020016000915054906101000a900473ffffffffffffffffffffffffffffffffffffffff1681565b60006003610fa7610a34565b81548110610fb857610fb761199d565b5b906000526020600020906002020160000154905090565b60007f01ffc9a7000000000000000000000000000000000000000000000000000000007bffffffffffffffffffffffffffffffffffffffffffffffffffffffff1916827bffffffffffffffffffffffffffffffffffffffffffffffffffffffff1916149050919050565b61104a8161104561112d565b611216565b50565b6110578282610abc565b61112957600160008084815260200190815260200160002060000160008373ffffffffffffffffffffffffffffffffffffffff1673ffffffffffffffffffffffffffffffffffffffff16815260200190815260200160002060006101000a81548160ff0219169083151502179055506110ce61112d565b73ffffffffffffffffffffffffffffffffffffffff168173ffffffffffffffffffffffffffffffffffffffff16837f2f8788117e7eff1d82e926ec794901d17c78024a50270940304540a733656f0d60405160405180910390a45b5050565b600033905090565b61113f8282610abc565b1561121257600080600084815260200190815260200160002060000160008373ffffffffffffffffffffffffffffffffffffffff1673ffffffffffffffffffffffffffffffffffffffff16815260200190815260200160002060006101000a81548160ff0219169083151502179055506111b761112d565b73ffffffffffffffffffffffffffffffffffffffff168173ffffffffffffffffffffffffffffffffffffffff16837ff6391f5c32d9c69d2a47ea670b442974b53935d1edc7fd64eb21e047a839171b60405160405180910390a45b5050565b6112208282610abc565b6112975761122d8161129b565b61123b8360001c60206112c8565b60405160200161124c929190611e0f565b6040516020818303038152906040526040517f08c379a000000000000000000000000000000000000000000000000000000000815260040161128e9190611e93565b60405180910390fd5b5050565b60606112c18273ffffffffffffffffffffffffffffffffffffffff16601460ff166112c8565b9050919050565b6060600060028360026112db9190611eb5565b6112e59190611c75565b67ffffffffffffffff8111156112fe576112fd611ef7565b5b6040519080825280601f01601f1916602001820160405280156113305781602001600182028036833780820191505090505b5090507f3000000000000000000000000000000000000000000000000000000000000000816000815181106113685761136761199d565b5b60200101907effffffffffffffffffffffffffffffffffffffffffffffffffffffffffffff1916908160001a9053507f7800000000000000000000000000000000000000000000000000000000000000816001815181106113cc576113cb61199d565b5b60200101907effffffffffffffffffffffffffffffffffffffffffffffffffffffffffffff1916908160001a9053506000600184600261140c9190611eb5565b6114169190611c75565b90505b60018111156114b6577f3031323334353637383961626364656600000000000000000000000000000000600f8616601081106114585761145761199d565b5b1a60f81b82828151811061146f5761146e61199d565b5b60200101907effffffffffffffffffffffffffffffffffffffffffffffffffffffffffffff1916908160001a905350600485901c9450806114af90611f26565b9050611419565b50600084146114fa576040517f08c379a00000000000000000000000000000000000000000000000000000000081526004016114f190611f9b565b60405180910390fd5b8091505092915050565b50805460008255906000526020600020908101906115229190611549565b50565b50805460008255600302906000526020600020908101906115469190611566565b50565b5b8082111561156257600081600090555060010161154a565b5090565b5b808211156115b057600080820160006101000a81549073ffffffffffffffffffffffffffffffffffffffff02191690556001820160009055600282016000905550600301611567565b5090565b600080fd5b6000819050919050565b6115cc816115b9565b81146115d757600080fd5b50565b6000813590506115e9816115c3565b92915050565b600060208284031215611605576116046115b4565b5b6000611613848285016115da565b91505092915050565b6000819050919050565b61162f8161161c565b82525050565b61163e816115b9565b82525050565b60006040820190506116596000830185611626565b6116666020830184611635565b9392505050565b60007fffffffff0000000000000000000000000000000000000000000000000000000082169050919050565b6116a28161166d565b81146116ad57600080fd5b50565b6000813590506116bf81611699565b92915050565b6000602082840312156116db576116da6115b4565b5b60006116e9848285016116b0565b91505092915050565b60008115159050919050565b611707816116f2565b82525050565b600060208201905061172260008301846116fe565b92915050565b600073ffffffffffffffffffffffffffffffffffffffff82169050919050565b600061175382611728565b9050919050565b61176381611748565b811461176e57600080fd5b50565b6000813590506117808161175a565b92915050565b60006020828403121561179c5761179b6115b4565b5b60006117aa84828501611771565b91505092915050565b6117bc8161161c565b81146117c757600080fd5b50565b6000813590506117d9816117b3565b92915050565b6000602082840312156117f5576117f46115b4565b5b6000611803848285016117ca565b91505092915050565b60006020820190506118216000830184611626565b92915050565b600060208201905061183c6000830184611635565b92915050565b60008060408385031215611859576118586115b4565b5b6000611867858286016117ca565b925050602061187885828601611771565b9150509250929050565b6000819050919050565b60006118a76118a261189d84611728565b611882565b611728565b9050919050565b60006118b98261188c565b9050919050565b60006118cb826118ae565b9050919050565b6118db816118c0565b82525050565b60006020820190506118f660008301846118d2565b92915050565b61190581611748565b82525050565b600060608201905061192060008301866118fc565b61192d6020830185611635565b61193a6040830184611635565b949350505050565b60008060408385031215611959576119586115b4565b5b6000611967858286016115da565b9250506020611978858286016115da565b9150509250929050565b600060208201905061199760008301846118fc565b92915050565b7f4e487b7100000000000000000000000000000000000000000000000000000000600052603260045260246000fd5b60006040820190506119e160008301856118fc565b6119ee6020830184611635565b9392505050565b600081519050611a04816115c3565b92915050565b600060208284031215611a2057611a1f6115b4565b5b6000611a2e848285016119f5565b91505092915050565b7f4e487b7100000000000000000000000000000000000000000000000000000000600052601160045260246000fd5b6000611a71826115b9565b91507fffffffffffffffffffffffffffffffffffffffffffffffffffffffffffffffff8203611aa357611aa2611a37565b5b600182019050919050565b600082825260208201905092915050565b7f596f752063616e6e6f74207265736574206265636175736520766f746573206360008201527f616e6e6f74206265206361727269656420746f20746865206e657720536e617060208201527f73686f7420626c6f636b206e756d626572000000000000000000000000000000604082015250565b6000611b41605183611aae565b9150611b4c82611abf565b606082019050919050565b60006020820190508181036000830152611b7081611b34565b9050919050565b7f416363657373436f6e74726f6c3a2063616e206f6e6c792072656e6f756e636560008201527f20726f6c657320666f722073656c660000000000000000000000000000000000602082015250565b6000611bd3602f83611aae565b9150611bde82611b77565b604082019050919050565b60006020820190508181036000830152611c0281611bc6565b9050919050565b7f496e73756666696369656e7420766f74696e6720706f7765722e000000000000600082015250565b6000611c3f601a83611aae565b9150611c4a82611c09565b602082019050919050565b60006020820190508181036000830152611c6e81611c32565b9050919050565b6000611c80826115b9565b9150611c8b836115b9565b9250828201905080821115611ca357611ca2611a37565b5b92915050565b6000604082019050611cbe6000830185611635565b611ccb6020830184611635565b9392505050565b6000611cdd826115b9565b9150611ce8836115b9565b9250828203905081811115611d0057611cff611a37565b5b92915050565b600081905092915050565b7f416363657373436f6e74726f6c3a206163636f756e7420000000000000000000600082015250565b6000611d47601783611d06565b9150611d5282611d11565b601782019050919050565b600081519050919050565b60005b83811015611d86578082015181840152602081019050611d6b565b60008484015250505050565b6000611d9d82611d5d565b611da78185611d06565b9350611db7818560208601611d68565b80840191505092915050565b7f206973206d697373696e6720726f6c6520000000000000000000000000000000600082015250565b6000611df9601183611d06565b9150611e0482611dc3565b601182019050919050565b6000611e1a82611d3a565b9150611e268285611d92565b9150611e3182611dec565b9150611e3d8284611d92565b91508190509392505050565b6000601f19601f8301169050919050565b6000611e6582611d5d565b611e6f8185611aae565b9350611e7f818560208601611d68565b611e8881611e49565b840191505092915050565b60006020820190508181036000830152611ead8184611e5a565b905092915050565b6000611ec0826115b9565b9150611ecb836115b9565b9250828202611ed9816115b9565b91508282048414831517611ef057611eef611a37565b5b5092915050565b7f4e487b7100000000000000000000000000000000000000000000000000000000600052604160045260246000fd5b6000611f31826115b9565b915060008203611f4457611f43611a37565b5b600182039050919050565b7f537472696e67733a20686578206c656e67746820696e73756666696369656e74600082015250565b6000611f85602083611aae565b9150611f9082611f4f565b602082019050919050565b60006020820190508181036000830152611fb481611f78565b905091905056fea2646970667358221220f295b73815bc546cd5c43718c0b841e7c859f53feaa12d87ab23dee65414b27b64736f6c63430008110033",
  "linkReferences": {},
  "deployedLinkReferences": {}
}